{
  "_format": "hh-sol-artifact-1",
  "contractName": "Crowdfunding",
  "sourceName": "contracts/Crowdfunding.sol",
  "abi": [
    {
      "inputs": [],
      "stateMutability": "nonpayable",
      "type": "constructor"
    },
    {
      "inputs": [],
      "name": "fundPetitions",
      "outputs": [],
      "stateMutability": "payable",
      "type": "function"
    },
    {
      "inputs": [
        {
          "internalType": "address",
          "name": "",
          "type": "address"
        }
      ],
      "name": "funders",
      "outputs": [
        {
          "internalType": "uint256",
          "name": "",
          "type": "uint256"
        }
      ],
      "stateMutability": "view",
      "type": "function"
    },
    {
      "inputs": [
        {
          "internalType": "uint256",
          "name": "index",
          "type": "uint256"
        }
      ],
      "name": "getFavourcount",
      "outputs": [
        {
          "internalType": "uint256",
          "name": "",
          "type": "uint256"
        }
      ],
      "stateMutability": "view",
      "type": "function"
    },
    {
      "inputs": [],
      "name": "getTimeDeadline",
      "outputs": [
        {
          "internalType": "uint256",
          "name": "",
          "type": "uint256"
        }
      ],
      "stateMutability": "view",
      "type": "function"
    },
    {
      "inputs": [],
      "name": "getnoOfFunders",
      "outputs": [
        {
          "internalType": "uint256",
          "name": "",
          "type": "uint256"
        }
      ],
      "stateMutability": "view",
      "type": "function"
    },
    {
      "inputs": [],
      "name": "manager",
      "outputs": [
        {
          "internalType": "address payable",
          "name": "",
          "type": "address"
        }
      ],
      "stateMutability": "view",
      "type": "function"
    },
    {
      "inputs": [
        {
          "internalType": "uint256",
          "name": "index",
          "type": "uint256"
        }
      ],
      "name": "payRecipient",
      "outputs": [
        {
          "internalType": "string",
          "name": "result",
          "type": "string"
        }
      ],
      "stateMutability": "payable",
      "type": "function"
    },
    {
      "inputs": [
        {
          "internalType": "uint256",
          "name": "",
          "type": "uint256"
        }
      ],
      "name": "petition",
      "outputs": [
        {
          "internalType": "string",
          "name": "name",
          "type": "string"
        },
        {
          "internalType": "uint256",
          "name": "amountNeeded",
          "type": "uint256"
        },
        {
          "internalType": "address payable",
          "name": "recipient",
          "type": "address"
        },
        {
          "internalType": "uint256",
          "name": "favourCount",
          "type": "uint256"
        },
        {
          "internalType": "bool",
          "name": "isFullfilled",
          "type": "bool"
        }
      ],
      "stateMutability": "view",
      "type": "function"
    },
    {
      "inputs": [],
      "name": "raisedAmount",
      "outputs": [
        {
          "internalType": "uint256",
          "name": "",
          "type": "uint256"
        }
      ],
      "stateMutability": "view",
      "type": "function"
    },
    {
      "inputs": [],
      "name": "refund",
      "outputs": [],
      "stateMutability": "payable",
      "type": "function"
    },
    {
      "inputs": [
        {
          "internalType": "uint256",
          "name": "_totalFundNeed",
          "type": "uint256"
        },
        {
          "internalType": "uint256",
          "name": "_timeDeadline",
          "type": "uint256"
        }
      ],
      "name": "setFundTime",
      "outputs": [],
      "stateMutability": "nonpayable",
      "type": "function"
    },
    {
      "inputs": [
        {
          "internalType": "string",
          "name": "_name",
          "type": "string"
        },
        {
          "internalType": "uint256",
          "name": "_amountNeeded",
          "type": "uint256"
        },
        {
          "internalType": "address",
          "name": "_recipient",
          "type": "address"
        }
      ],
      "name": "setPetition",
      "outputs": [],
      "stateMutability": "nonpayable",
      "type": "function"
    },
    {
      "inputs": [],
      "name": "timeDeadline",
      "outputs": [
        {
          "internalType": "uint256",
          "name": "",
          "type": "uint256"
        }
      ],
      "stateMutability": "view",
      "type": "function"
    },
    {
      "inputs": [],
      "name": "totalFundNeed",
      "outputs": [
        {
          "internalType": "uint256",
          "name": "",
          "type": "uint256"
        }
      ],
      "stateMutability": "view",
      "type": "function"
    },
    {
      "inputs": [],
      "name": "totalPetitions",
      "outputs": [
        {
          "internalType": "uint256",
          "name": "",
          "type": "uint256"
        }
      ],
      "stateMutability": "view",
      "type": "function"
    },
    {
      "inputs": [
        {
          "internalType": "uint256",
          "name": "index",
          "type": "uint256"
        }
      ],
      "name": "votePetition",
      "outputs": [],
      "stateMutability": "nonpayable",
      "type": "function"
    }
  ],
  "bytecode": "0x608060405234801561001057600080fd5b5033600760006101000a81548173ffffffffffffffffffffffffffffffffffffffff021916908373ffffffffffffffffffffffffffffffffffffffff160217905550611b5a806100616000396000f3fe6080604052600436106100f35760003560e01c80635de909fa1161008a578063a5e0e9bb11610059578063a5e0e9bb146102ee578063c59ee1dc14610319578063d15217b414610344578063e58bc01c14610374576100f3565b80635de909fa1461024f57806362696e9f146102905780637cda6f701461029a57806394443e1b146102c5576100f3565b80634840cafb116100c65780634840cafb146101c657806353c8b1a5146101ef57806356b14c661461021a578063590e1ae314610245576100f3565b8063031b3677146100f857806317b1ed37146101355780631cc0f8561461015e578063481c6a751461019b575b600080fd5b34801561010457600080fd5b5061011f600480360381019061011a919061101e565b61039f565b60405161012c9190611064565b60405180910390f35b34801561014157600080fd5b5061015c600480360381019061015791906110ab565b6103b7565b005b34801561016a57600080fd5b50610185600480360381019061018091906110eb565b610464565b6040516101929190611064565b60405180910390f35b3480156101a757600080fd5b506101b0610489565b6040516101bd9190611139565b60405180910390f35b3480156101d257600080fd5b506101ed60048036038101906101e891906110eb565b6104af565b005b3480156101fb57600080fd5b50610204610695565b6040516102119190611064565b60405180910390f35b34801561022657600080fd5b5061022f6106a2565b60405161023c9190611064565b60405180910390f35b61024d6106a8565b005b34801561025b57600080fd5b50610276600480360381019061027191906110eb565b6107f6565b604051610287959493929190611208565b60405180910390f35b6102986108e1565b005b3480156102a657600080fd5b506102af610a8c565b6040516102bc9190611064565b60405180910390f35b3480156102d157600080fd5b506102ec60048036038101906102e79190611397565b610a92565b005b3480156102fa57600080fd5b50610303610bd9565b6040516103109190611064565b60405180910390f35b34801561032557600080fd5b5061032e610bdf565b60405161033b9190611064565b60405180910390f35b61035e600480360381019061035991906110eb565b610be5565b60405161036b9190611406565b60405180910390f35b34801561038057600080fd5b50610389610eff565b6040516103969190611064565b60405180910390f35b60036020528060005260406000206000915090505481565b3373ffffffffffffffffffffffffffffffffffffffff16600760009054906101000a900473ffffffffffffffffffffffffffffffffffffffff1673ffffffffffffffffffffffffffffffffffffffff1614610447576040517f08c379a000000000000000000000000000000000000000000000000000000000815260040161043e90611474565b60405180910390fd5b81600581905550804261045a91906114c3565b6006819055505050565b6000806002600084815260200190815260200160002090508060030154915050919050565b600760009054906101000a900473ffffffffffffffffffffffffffffffffffffffff1681565b8080600054116104f4576040517f08c379a00000000000000000000000000000000000000000000000000000000081526004016104eb90611565565b60405180910390fd5b6000600360003373ffffffffffffffffffffffffffffffffffffffff1673ffffffffffffffffffffffffffffffffffffffff1681526020019081526020016000205411610576576040517f08c379a000000000000000000000000000000000000000000000000000000000815260040161056d906115d1565b60405180910390fd5b60006002600084815260200190815260200160002090508060050160003373ffffffffffffffffffffffffffffffffffffffff1673ffffffffffffffffffffffffffffffffffffffff16815260200190815260200160002060009054906101000a900460ff161561061c576040517f08c379a00000000000000000000000000000000000000000000000000000000081526004016106139061163d565b60405180910390fd5b60018160050160003373ffffffffffffffffffffffffffffffffffffffff1673ffffffffffffffffffffffffffffffffffffffff16815260200190815260200160002060006101000a81548160ff02191690831515021790555080600301600081548092919061068b9061165d565b9190505550505050565b6000600180549050905090565b60055481565b60065442116106ec576040517f08c379a00000000000000000000000000000000000000000000000000000000081526004016106e3906116f2565b60405180910390fd5b6000600360003373ffffffffffffffffffffffffffffffffffffffff1673ffffffffffffffffffffffffffffffffffffffff168152602001908152602001600020541161076e576040517f08c379a00000000000000000000000000000000000000000000000000000000081526004016107659061175e565b60405180910390fd5b3373ffffffffffffffffffffffffffffffffffffffff166108fc600360003373ffffffffffffffffffffffffffffffffffffffff1673ffffffffffffffffffffffffffffffffffffffff168152602001908152602001600020549081150290604051600060405180830381858888f193505050501580156107f3573d6000803e3d6000fd5b50565b6002602052806000526040600020600091509050806000018054610819906117ad565b80601f0160208091040260200160405190810160405280929190818152602001828054610845906117ad565b80156108925780601f1061086757610100808354040283529160200191610892565b820191906000526020600020905b81548152906001019060200180831161087557829003601f168201915b5050505050908060010154908060020160009054906101000a900473ffffffffffffffffffffffffffffffffffffffff16908060030154908060040160009054906101000a900460ff16905085565b6006544210610925576040517f08c379a000000000000000000000000000000000000000000000000000000000815260040161091c9061182b565b60405180910390fd5b662386f26fc1000034101561096f576040517f08c379a0000000000000000000000000000000000000000000000000000000008152600401610966906118bd565b60405180910390fd5b6000600360003373ffffffffffffffffffffffffffffffffffffffff1673ffffffffffffffffffffffffffffffffffffffff168152602001908152602001600020541415610a1b576001339080600181540180825580915050600190039060005260206000200160009091909190916101000a81548173ffffffffffffffffffffffffffffffffffffffff021916908373ffffffffffffffffffffffffffffffffffffffff1602179055505b34600360003373ffffffffffffffffffffffffffffffffffffffff1673ffffffffffffffffffffffffffffffffffffffff1681526020019081526020016000206000828254610a6a91906114c3565b925050819055503460046000828254610a8391906114c3565b92505081905550565b60005481565b3373ffffffffffffffffffffffffffffffffffffffff16600760009054906101000a900473ffffffffffffffffffffffffffffffffffffffff1673ffffffffffffffffffffffffffffffffffffffff1614610b22576040517f08c379a0000000000000000000000000000000000000000000000000000000008152600401610b1990611474565b60405180910390fd5b60006002600080548152602001908152602001600020905083816000019080519060200190610b52929190610f09565b50828160010181905550818160020160006101000a81548173ffffffffffffffffffffffffffffffffffffffff021916908373ffffffffffffffffffffffffffffffffffffffff16021790555060008160040160006101000a81548160ff021916908315150217905550600080815480929190610bce9061165d565b919050555050505050565b60065481565b60045481565b6060818060005411610c2c576040517f08c379a0000000000000000000000000000000000000000000000000000000008152600401610c2390611565565b60405180910390fd5b3373ffffffffffffffffffffffffffffffffffffffff16600760009054906101000a900473ffffffffffffffffffffffffffffffffffffffff1673ffffffffffffffffffffffffffffffffffffffff1614610cbc576040517f08c379a0000000000000000000000000000000000000000000000000000000008152600401610cb390611474565b60405180910390fd5b60006002600085815260200190815260200160002090508060010154471015610d1a576040517f08c379a0000000000000000000000000000000000000000000000000000000008152600401610d1190611929565b60405180910390fd5b6002600180549050610d2c9190611978565b816003015411610d71576040517f08c379a0000000000000000000000000000000000000000000000000000000008152600401610d68906119f5565b60405180910390fd5b8060040160009054906101000a900460ff1615610dc3576040517f08c379a0000000000000000000000000000000000000000000000000000000008152600401610dba90611a61565b60405180910390fd5b60008160020160009054906101000a900473ffffffffffffffffffffffffffffffffffffffff1673ffffffffffffffffffffffffffffffffffffffff168260010154600036604051610e16929190611ab1565b60006040518083038185875af1925050503d8060008114610e53576040519150601f19603f3d011682016040523d82523d6000602084013e610e58565b606091505b505090508015610edb57816001015460046000828254610e789190611aca565b9250508190555060018260040160006101000a81548160ff0219169083151502179055506040518060400160405280600d81526020017f596f75206861766520506169640000000000000000000000000000000000000081525093505050610ef9565b604051806060016040528060268152602001611aff60269139935050505b50919050565b6000600654905090565b828054610f15906117ad565b90600052602060002090601f016020900481019282610f375760008555610f7e565b82601f10610f5057805160ff1916838001178555610f7e565b82800160010185558215610f7e579182015b82811115610f7d578251825591602001919060010190610f62565b5b509050610f8b9190610f8f565b5090565b5b80821115610fa8576000816000905550600101610f90565b5090565b6000604051905090565b600080fd5b600080fd5b600073ffffffffffffffffffffffffffffffffffffffff82169050919050565b6000610feb82610fc0565b9050919050565b610ffb81610fe0565b811461100657600080fd5b50565b60008135905061101881610ff2565b92915050565b60006020828403121561103457611033610fb6565b5b600061104284828501611009565b91505092915050565b6000819050919050565b61105e8161104b565b82525050565b60006020820190506110796000830184611055565b92915050565b6110888161104b565b811461109357600080fd5b50565b6000813590506110a58161107f565b92915050565b600080604083850312156110c2576110c1610fb6565b5b60006110d085828601611096565b92505060206110e185828601611096565b9150509250929050565b60006020828403121561110157611100610fb6565b5b600061110f84828501611096565b91505092915050565b600061112382610fc0565b9050919050565b61113381611118565b82525050565b600060208201905061114e600083018461112a565b92915050565b600081519050919050565b600082825260208201905092915050565b60005b8381101561118e578082015181840152602081019050611173565b8381111561119d576000848401525b50505050565b6000601f19601f8301169050919050565b60006111bf82611154565b6111c9818561115f565b93506111d9818560208601611170565b6111e2816111a3565b840191505092915050565b60008115159050919050565b611202816111ed565b82525050565b600060a082019050818103600083015261122281886111b4565b90506112316020830187611055565b61123e604083018661112a565b61124b6060830185611055565b61125860808301846111f9565b9695505050505050565b600080fd5b600080fd5b7f4e487b7100000000000000000000000000000000000000000000000000000000600052604160045260246000fd5b6112a4826111a3565b810181811067ffffffffffffffff821117156112c3576112c261126c565b5b80604052505050565b60006112d6610fac565b90506112e2828261129b565b919050565b600067ffffffffffffffff8211156113025761130161126c565b5b61130b826111a3565b9050602081019050919050565b82818337600083830152505050565b600061133a611335846112e7565b6112cc565b90508281526020810184848401111561135657611355611267565b5b611361848285611318565b509392505050565b600082601f83011261137e5761137d611262565b5b813561138e848260208601611327565b91505092915050565b6000806000606084860312156113b0576113af610fb6565b5b600084013567ffffffffffffffff8111156113ce576113cd610fbb565b5b6113da86828701611369565b93505060206113eb86828701611096565b92505060406113fc86828701611009565b9150509250925092565b6000602082019050818103600083015261142081846111b4565b905092915050565b7f596f7520617265206e6f7420616e204d616e6167657200000000000000000000600082015250565b600061145e60168361115f565b915061146982611428565b602082019050919050565b6000602082019050818103600083015261148d81611451565b9050919050565b7f4e487b7100000000000000000000000000000000000000000000000000000000600052601160045260246000fd5b60006114ce8261104b565b91506114d98361104b565b9250827fffffffffffffffffffffffffffffffffffffffffffffffffffffffffffffffff0382111561150e5761150d611494565b5b828201905092915050565b7f446f6e27742068617665205065746974696f6e206f6620746869732049440000600082015250565b600061154f601e8361115f565b915061155a82611519565b602082019050919050565b6000602082019050818103600083015261157e81611542565b9050919050565b7f596f7520617265206e6f7420612066756e646572000000000000000000000000600082015250565b60006115bb60148361115f565b91506115c682611585565b602082019050919050565b600060208201905081810360008301526115ea816115ae565b9050919050565b7f416c726561647920566f74656400000000000000000000000000000000000000600082015250565b6000611627600d8361115f565b9150611632826115f1565b602082019050919050565b600060208201905081810360008301526116568161161a565b9050919050565b60006116688261104b565b91507fffffffffffffffffffffffffffffffffffffffffffffffffffffffffffffffff82141561169b5761169a611494565b5b600182019050919050565b7f446561646c696e6520686173206e6f74206265656e2050617373656400000000600082015250565b60006116dc601c8361115f565b91506116e7826116a6565b602082019050919050565b6000602082019050818103600083015261170b816116cf565b9050919050565b7f596f7520617265206e6f7420612046756e646572000000000000000000000000600082015250565b600061174860148361115f565b915061175382611712565b602082019050919050565b600060208201905081810360008301526117778161173b565b9050919050565b7f4e487b7100000000000000000000000000000000000000000000000000000000600052602260045260246000fd5b600060028204905060018216806117c557607f821691505b602082108114156117d9576117d861177e565b5b50919050565b7f446561646c696e6520686173206265656e205061737365640000000000000000600082015250565b600061181560188361115f565b9150611820826117df565b602082019050919050565b6000602082019050818103600083015261184481611808565b9050919050565b7f46756e64696e6720416d6f756e74204d7573742062652067726561746572207460008201527f68616e20302e3031206574686572000000000000000000000000000000000000602082015250565b60006118a7602e8361115f565b91506118b28261184b565b604082019050919050565b600060208201905081810360008301526118d68161189a565b9050919050565b7f4e6f7420656e6f7567682046756e640000000000000000000000000000000000600082015250565b6000611913600f8361115f565b915061191e826118dd565b602082019050919050565b6000602082019050818103600083015261194281611906565b9050919050565b7f4e487b7100000000000000000000000000000000000000000000000000000000600052601260045260246000fd5b60006119838261104b565b915061198e8361104b565b92508261199e5761199d611949565b5b828204905092915050565b7f536f7272792c52657175657374204e6f742046756c6c66696c6c656400000000600082015250565b60006119df601c8361115f565b91506119ea826119a9565b602082019050919050565b60006020820190508181036000830152611a0e816119d2565b9050919050565b7f416c726561647920506169640000000000000000000000000000000000000000600082015250565b6000611a4b600c8361115f565b9150611a5682611a15565b602082019050919050565b60006020820190508181036000830152611a7a81611a3e565b9050919050565b600081905092915050565b6000611a988385611a81565b9350611aa5838584611318565b82840190509392505050565b6000611abe828486611a8c565b91508190509392505050565b6000611ad58261104b565b9150611ae08361104b565b925082821015611af357611af2611494565b5b82820390509291505056fe5472616e73616374696f6e204661696c65642074727920616674657220736f6d6574696d6573a264697066735822122089365d4baa5bf17b11bf4e4bd29f782e425dcf5fbd7769c9e21585f89e0a3c7764736f6c63430008090033",
  "linkReferences": {},
  "deployedLinkReferences": {}
}